:020000040800F2
:1000000068120020DD010008EF230008F12300083A
:10001000F5230008F9230008FD2300080000000074
:1000200000000000000000000000000001240008A3
:10003000032400080000000005240008072400082D
:10004000F7010008F7010008F7010008F7010008B0
:10005000F7010008F7010008F7010008F7010008A0
:10006000F7010008F7010008F7010008F701000890
:10007000F7010008F7010008F7010008F701000880
:10008000F7010008F7010008F7010008F701000870
:10009000F7010008F7010008F7010008F701000860
:1000A000F7010008F7010008F7010008F701000850
:1000B000435A0008F7010008F7010008F70100089B
:1000C000F7010008F7010008F7010008F701000830
:1000D000F7010008C7250008F7010008F70100082C
:1000E000F7010008F7010008F7010008F701000810
:1000F000F7010008F7010008F7010008F701000800
:10010000F7010008F7010008F7010008F7010008EF
:100110003F260008F7010008F7010008F701000872
:10012000F7010008F7010008F7010008F7010008CF
:1001300000F002F800F043F80AA090E8000C8244B6
:100140008344AAF10107DA4501D100F038F8AFF293
:10015000090EBAE80F0013F0010F18BFFB1A43F0A5
:10016000010318478C6B0000AC6B0000103A24BFF1
:1001700078C878C1FAD8520724BF30C830C144BF0C
:1001800004680C607047000000230024002500264E
:10019000103A28BF78C1FBD8520728BF30C148BFEA
:1001A0000B607047782905F0F784002070471FB571
:1001B0009DE8030005F09EFF1FBD10B510BD06F0C1
:1001C000D5F81146FFF7F3FF02F005F906F0F3F852
:1001D00003B4FFF7F2FF03BC02F060FA094880475E
:1001E00009480047FEE7FEE7FEE7FEE7FEE7FEE719
:1001F000FEE7FEE7FEE7FEE704480549054A064B31
:1002000070470000DF0E000831010008680200207E
:1002100068120020680A0020680A002010B5044611
:10022000CC48844208D10121042000F02DFB00219C
:10023000042000F029FB46E0C748844208D1012190
:10024000082000F021FB0021082000F01DFB3AE00F
:10025000C248844208D10121102000F015FB002182
:10026000102000F011FB2EE0BD48844208D101218E
:10027000202000F009FB0021202000F005FB22E0F7
:10028000B848844208D10121402000F0FDFA002145
:10029000402000F0F9FA16E0B348844208D1012169
:1002A000802000F0F1FA0021802000F0EDFA0AE051
:1002B000AE48844207D10121801500F0E5FA002103
:1002C000A01500F0E1FA10BD10B50121084600F0BC
:1002D000DBFA0021012000F0D7FA10BD2DE9F04132
:1002E000024600250026002000230024002791F864
:1002F00003C00CF00F0591F803C00CF0100CBCF11A
:10030000000F03D091F802C04CEA050591F800C037
:10031000BCF1000F31D0146800202BE04FF0010C2D
:100320000CFA00F3B1F800C00CEA03069E4220D19B
:1003300083004FF00F0C0CFA03F7BC4305FA03FCE3
:100340004CEA040491F803C0BCF1280F06D14FF029
:10035000010C0CFA00FCC2F814C00AE091F803C0CA
:10036000BCF1480F05D14FF0010C0CFA00FCC2F8AB
:1003700010C0401C0828D1D31460B1F800C0BCF1F3
:10038000FF0F34DD546800202EE000F1080C4FF020
:10039000010808FA0CF3B1F800C00CEA03069E420B
:1003A00021D183004FF00F0C0CFA03F7BC4305FA80
:1003B00003FC4CEA040491F803C0BCF1280F05D1FA
:1003C00000F1080C08FA0CF8C2F8148091F803C088
:1003D000BCF1480F07D100F1080C4FF0010808FAF2
:1003E0000CF8C2F81080401C0828CED35460BDE839
:1003F000F0814FF6FF710180022181700421C170EC
:1004000070470246002093680B400BB1012000E0CA
:10041000002070470146886880B27047024600207D
:10042000D3680B400BB1012000E00020704701466B
:10043000C86880B2704701617047416170470AB176
:10044000016100E041617047C16070474FF4803244
:100450000A438261816182618269826970470246D2
:100460000020434B18684FF68073184040EA021092
:1004700008433F4B186070473E49C8617047F0B56C
:100480000A46002300240021002500F00046B6F1B2
:10049000004F02D1364EF16901E0354E7168C0F36C
:1004A000034583B200F44016B6F5401F08D121F091
:1004B00070612F4E766826F070662D4F7E6012E0D8
:1004C00000F48016B6F5801F06D1032606FA05F45F
:1004D000A14341F0706106E0460D360103FA06F6CD
:1004E000B14341F0706122B1460D360103FA06F6C0
:1004F000314300F00046B6F1004F02D11C4EF161CD
:1005000001E01B4E7160F0BD30B500228B071C0F5F
:100510000F2303FA04F2164B08338C1053F82430DF
:100520009343134C08348D1044F8253023468C1027
:1005300053F824308C07240F00FA04F423430C4CA6
:1005400008348D1044F8253030BD0A49DC3108608C
:100550007047000000080140000C014000100140FD
:100560000014014000180140001C0140002001401F
:100570000000014000002042DF48006840F0010018
:10058000DD49086008464068DC490840DA494860AF
:1005900008460068DA490840D749086008460068FC
:1005A00020F4802008600846406820F4FE0048607F
:1005B0004FF41F0088607047CF49096821F48031EB
:1005C000CD4A11601146096821F480211160B0F50F
:1005D000803F03D0B0F5802F0ED106E0C6490968F0
:1005E00041F48031C44A116007E0C349096841F40D
:1005F000A021C14A116000E000BF00BF704710B5E4
:1006000001460022002300204A11012A02D1BA4CDF
:10061000236806E0022A02D1B74C236A01E0B64CF7
:10062000636A01F01F02012494401C400CB10120B8
:1006300000E0002010BD38B5002000900024002507
:1006400000BF3120FFF7DBFF05460098401C0090FB
:100650000098B0F5A06F01D0002DF2D03120FFF747
:10066000CEFF08B1012400E00024204638BD014639
:100670000020A14A106820F0F80040EAC100106094
:100680007047A04908607047024600209A4B58689E
:1006900020F47C1042EA01031843974B58607047DE
:1006A00098490866704701460020934A506820F038
:1006B00003000843506070478F48406800F00C000A
:1006C0007047014600208C4A506820F0F000084333
:1006D0005060704701460020874A506820F4E0606F
:1006E00008435060704701460020834A506820F458
:1006F000605040EAC1005060704729B17E4A527A8A
:1007000002437D4B5A7204E07B4A527A82437A4B11
:100710005A7270477B49D831086070470146002003
:10072000754A506820F440400843506070470021EB
:10073000714A20321170704A82F82010012802D0CC
:1007400004280AD104E001216B4A2032117005E02F
:100750000521694A2032117000E000BF00BF7047D8
:100760006949086070476449096A0143624A116235
:100770007047654944390860704730B50021002250
:10078000002400235C4D6D6805F00C0121B10429A3
:1007900005D0082923D105E05C4D056022E05B4DC2
:1007A00005601FE0544D6D6805F47012524D6D6880
:1007B00005F48034022505EB92421CB9544D554393
:1007C00005600BE04C4D6D6805F400351DB1504DD2
:1007D0005543056002E04D4D5543056002E04B4D29
:1007E000056000BF00BF444D6D6805F0F0010909C8
:1007F000484D6B5C0568DD4045603F4D6D6805F414
:10080000E061090A434D6B5C4568DD4085603A4D07
:100810006D6805F46051C90A3E4D6B5C4568DD406A
:10082000C560354D6D6805F44041890B3A4D6B5CF0
:10083000C568B5FBF3F5056130BD29B12E4A526993
:1008400002432D4B5A6104E02B4A526982432A4BE2
:100850005A61704729B1284A92690243264B9A612E
:1008600004E0254A92698243234B9A61704729B17B
:10087000214AD2690243204BDA6104E01E4AD26960
:1008800082431D4BDA61704729B11B4AD26802438B
:10089000194BDA6004E0184AD2688243164BDA60DA
:1008A000704729B1144A12690243134B1A6104E0DC
:1008B000114A12698243104B1A617047124940393C
:1008C000086070470F49C86470470B49C87170478A
:1008D0000948406A40F08070074948627047014605
:1008E0000020054A92680A400AB1012000E0002079
:1008F0007047014988727047001002400000FFF8FD
:10090000FFFFF6FE000042428004424200127A00DD
:1009100000093D00000000201000002010B5044632
:10092000FB48844209D101218803FFF7ADFF002174
:100930004FF48040FFF7A8FF32E0F648844209D127
:1009400001214804FFF7ADFF00214FF40030FFF70D
:10095000A8FF25E0F048844209D101218804FFF76F
:10096000A0FF00214FF48020FFF79BFF18E0EB4829
:10097000844209D10121C804FFF793FF00214FF4FD
:100980000020FFF78EFF0BE0E548844208D10121EB
:100990000805FFF786FF00214FF48010FFF781FF65
:1009A00010BD2DE9F04786B005460E460024A2464C
:1009B00000BFA1460027B08900B100BF2F462C8A96
:1009C0004CF6FF700440F08804432C82AC894EF64C
:1009D000F3100440B0883189084371890843044307
:1009E000AC81AC8A4FF6FF400440B0890443AC822E
:1009F00001A8FFF7C2FEC648874202D1DDF810A069
:100A000001E0DDF80CA0A88900F4004040B10AEB39
:100A1000CA0000EB0A1031684900B0FBF1F807E0AA
:100A20000AEBCA0000EB0A1031688900B0FBF1F84C
:100A30006420B8FBF0F004012009642101FB108957
:100A4000A88900F4004040B1322000EBC900B0FB9F
:100A5000F1F000F00700044308E0322000EB091039
:100A60006421B0FBF1F000F00F0004432C8106B0CC
:100A7000BDE8F0874FF41651016000218180C180EC
:100A800001810C21418100218181704710B502460E
:100A90000020108A4FF2FF0318400B884C88234334
:100AA0008C882343CC8823431843108210BD002137
:100AB000018041808180C180704721B1828942F4E8
:100AC0000052828104E082894DF6FF731A408281D0
:100AD0007047F0B50346002400260025002040F6AC
:100AE0006A17B94200D100BF1846C1F3421401F0A1
:100AF0001F06012707FA06F5012C01D10C3004E08E
:100B0000022C01D1103000E014301AB107682F43D5
:100B1000076002E00768AF430760F0BD1AB1838A3F
:100B20000B43838202E0838A8B4383827047028A6D
:100B30004FF6F0731A400282028A0A43028270471B
:100B400082894FF2FF731A40828182890A4382812F
:100B5000704721B1828942F00202828104E08289D9
:100B60004FF6FD731A4082817047028A4FF6DF7399
:100B70001A400282028A0A430282704721B1028A25
:100B800042F48042028204E0028A4BF6FF731A406C
:100B900002827047C1F3080282807047014688884C
:100BA000C0F308007047818941F0010181817047DD
:100BB000028BD2B20283028B42EA01220283704787
:100BC000028B02F47F420283028B0A430283704746
:100BD00021B1828A42F02002828204E0828A4FF6AA
:100BE000DF731A408282704721B1828A42F010027C
:100BF000828204E0828A4FF6EF731A408282704745
:100C000021B1828A42F00802828204E0828A4FF691
:100C1000F7731A408282704721B1828942F4004200
:100C2000828103E08289C2F30E028281704721B182
:100C3000828A42F40062828204E0828A4FF2FF7369
:100C40001A4082827047828A4FF6FB731A40828272
:100C5000828A0A438282704721B1828A42F002026C
:100C6000828204E0828A4FF6FD731A4082827047C6
:100C700002460020B1F5007F00D100BF13880B4071
:100C80000BB1012000E00020704701F40072B2F5C2
:100C9000007F00D100BFCA430280704770B5024692
:100CA000002400230025002040F66A16B14200D13E
:100CB00000BFC1F3421501F01F03012606FA03F33A
:100CC000012D02D19689334006E0022D02D1168A09
:100CD000334001E0968A33400C12012606FA04F4F0
:100CE0001688344013B10CB1012000E0002070BD23
:100CF00010B50022002340F66A14A14200D100BFC3
:100D00000A1201249440A3B2DC43048010BD000009
:100D1000003801400044004000480040004C0040C2
:100D20000050004031490143314A1160704770B5AD
:100D3000002100230F22C47804B32D4C246804F44E
:100D4000E064C4F5E064210AC1F10403CA404478B8
:100D500004FA03F18478144021430901254C0678F4
:100D6000A155047804F01F050124AC4005786D11ED
:100D7000AD0005F1E025C5F8004109E0047804F074
:100D80001F050124AC401C4D0678761145F826401D
:100D900070BD1A4A0A400243154B1B1F1A60704768
:100DA00039B1134A121D12680243114B1B1D1A6000
:100DB00006E00F4A121D126882430D4B1B1D1A607C
:100DC0007047042808D14FF0E021096941F004017F
:100DD0004FF0E022116107E04FF0E021096921F0B6
:100DE00004014FF0E0221161704700000000FA0595
:100DF0000CED00E000E400E080E100E080FFFF1F78
:100E00000CB50020019000906C48006840F48030E0
:100E10006A49086000BF6948006800F4003000902B
:100E20000198401C0190009818B90198B0F5A06F86
:100E3000F1D16248006800F4003010B10120009048
:100E400001E0002000900098012843D15C48006830
:100E500040F010005A4908600846006820F003007E
:100E600008600846006840F0020008605348406887
:100E7000524948600846406848600846406840F467
:100E8000806048600846406820F47C10486008464E
:100E9000406840F4E81048600846006840F0807000
:100EA000086000BF4548006800F000700028F9D0D5
:100EB0004248406820F003004049486008464068C6
:100EC00040F00200486000BF3C48406800F00C0061
:100ED0000828F9D10CBD10B5FFF792FF10BD10B571
:100EE0003648006840F00100344908600846406810
:100EF0003449084031494860084600683249084092
:100F00002E4908600846006820F4802008600846E2
:100F1000406820F4FE0048604FF41F008860FFF72F
:100F2000DAFF4FF000602949086010BD10B50021BC
:100F300000200022214B5B6803F00C0121B1042941
:100F400006D0082928D107E0214B224C236027E056
:100F50001F4B204C236023E0184B5B6803F4701098
:100F6000164B5B6803F48032022303EB904022B9F6
:100F7000194B4343174C23600DE0104B5B6803F49F
:100F8000003323B1144B4343124C236003E0104B56
:100F90004343104C236003E00D4B0E4C236000BF15
:100FA00000BF064B5B68C3F303130C4CE15C094BB9
:100FB0001B68CB40074C236010BD000000100240AE
:100FC000002002400000FFF8FFFFF6FE08ED00E001
:100FD00000127A001400002000093D0018000020D3
:100FE00001460020FE4A106800F0380008431060F7
:100FF0007047FB49096821F00801F94A1160114660
:101000000968014311607047F549096821F0100132
:10101000F34A116011460968014311607047F148B5
:10102000EF494860F04848607047EE48EC49486036
:10103000ED4848607047EA48006940F08000E849A0
:1010400008617047E648006940F08000E4490861A3
:1010500070470420E249C96801F0010109B101208B
:101060000EE0DF49C96801F0040109B1022007E080
:10107000DB49C96801F0100109B1032000E0042038
:10108000704700B502460423FFF7E3FF034603E081
:10109000FFF7DFFF0346521E012B01D1002AF7D1D3
:1010A00002B90523184600BD30B5044604254FF4A7
:1010B0003020FFF7E6FF0546042D17D1C848006928
:1010C00040F00200C649086108464461006940F0EA
:1010D000400008614FF43020FFF7D3FF0546C048B9
:1010E000006941F6FD710840BD490861284630BDE0
:1010F00010B504244FF43020FFF7C3FF0446042C3E
:1011000016D1B748006940F00400B54908610846A7
:10111000006940F0400008614FF43020FFF7B1FF54
:101120000446AF48006941F6FB710840AC490861CC
:10113000204610BD00B502460423FFF78AFF034690
:1011400003E0FFF786FF0346521E012B01D1002A60
:10115000F7D102B90523184600BD10B504244FF499
:101160003020FFF7E7FF0446042C16D19C480069A5
:1011700040F004009A4908610846006940F04000C8
:1011800008614FF43020FFF7D5FF0446944800690A
:1011900041F6FB71084092490861204610BD0020CD
:1011A0008F49C96901F0020109B1012000E0002066
:1011B000704730B5A5250424FFF7F1FF00B10025E5
:1011C0004FF43020FFF75DFF0446042C3AD18548E8
:1011D00083498860844888600846006940F02000A0
:1011E00008610846006940F0400008614FF4302073
:1011F000FFF747FF0446042C1BD17948006941F6EC
:10120000DF710840764908610846006940F0100027
:10121000086176480580E002FFF733FF0446052C9D
:1012200010D06F48006941F6EF7108406C490861C1
:1012300008E0052C06D06A48006941F6EF710840C5
:1012400067490861204630BD78B506460C4604253E
:1012500000200090E802FFF714FF0546042D24D17A
:101260005F48006940F001005D4908613480E80290
:10127000FFF707FF0546042D10D1B01C0090200C8D
:1012800000990880E802FFF7FCFE05465448006913
:1012900041F6FE7108405249086106E05048006975
:1012A00041F6FE7108404E490861284678BD70B588
:1012B00004460D460426F002FFF7E3FE0646042E20
:1012C00011D14748006940F0010045490861258077
:1012D000F002FFF7D6FE06464148006941F6FE716E
:1012E00008403F490861304670BD70B505460E465E
:1012F0000424E002FFF7C5FE0446042C17D1394848
:1013000037498860384888600846006940F0100016
:1013100008612E80E002FFF7B4FE0446052C06D0DB
:101320002F48006941F6EF7108402D4908612046B9
:1013300070BD2DE9F04304464FF6FF763746B046C0
:10134000B1460425E443E6B2C4F30727C4F30748D3
:101350004FEA1469E802FFF794FE0546042D49D1CF
:1013600020481F498860204888600846006940F08E
:1013700010000861FF2E06D01C4808300680E802E5
:10138000FFF77FFE0546042D08D1FF2F06D0174832
:101390000A300780E802FFF774FE0546042D0AD1E3
:1013A000B8F1FF0F07D011480C30A0F80080E80218
:1013B000FFF767FE0546042D0AD1B9F1FF0F07D0EC
:1013C0000A480E30A0F80090E802FFF75AFE0546E2
:1013D000052D0FD00248006941F6EF71084007E083
:1013E0000020024023016745AB89EFCD00F8FF1FC5
:1013F000664908612846BDE8F08330B505460424F7
:101400004FF43020FFF73DFE0446042C41D16048E4
:101410005E4988605F4888600846006940F02000A7
:1014200008610846006940F0400008614FF4302030
:10143000FFF727FE0446042C22D15448006941F6E8
:10144000DF710840514908610846006940F010000A
:1014500008611DB100205049088002E0A5204E49D6
:1014600008804FF43020FFF70CFE0446052C10D006
:101470004648006941F6EF7108404449086108E0B8
:10148000052C06D04148006941F6DF7108403F490C
:101490000861204630BDF0B505460E4617460424C7
:1014A0003B483A4988603B488860E002FFF7E9FD25
:1014B0000446042C19D13548006940F01000334926
:1014C000086147F0F800304328433349891C0880FD
:1014D000E002FFF7D6FD0446052C06D02B48006934
:1014E00041F6EF710840294908612046F0BD2748C0
:1014F000C069800870472548006A7047002023496A
:10150000096801F0200109B1012000E000207047C6
:1015100029B11E4A126902431C4B1A6104E01B4A9E
:1015200012698243194B1A61704701460020012954
:1015300008D1164AD26902F001020AB1012008E07E
:10154000002006E0114AD2680A400AB1012000E0FA
:10155000002070470D49C860704704200B49C968D6
:1015600001F0010109B101200EE00849C96801F04C
:10157000040109B1022007E00449C96801F0100123
:1015800009B1032000E00420704700000020024061
:1015900023016745AB89EFCD00F8FF1F10B5044666
:1015A000FE48844208D10121C014FFF76DF90021E3
:1015B000E014FFF769F9C4E0B4F1804F08D10121CC
:1015C0000846FFF76EF900210120FFF76AF9B8E03D
:1015D000F348844208D101210220FFF762F900217B
:1015E0000220FFF75EF9ACE0EE48844208D1012109
:1015F0000420FFF756F900210420FFF752F9A0E07C
:10160000E948844208D101210820FFF74AF9002166
:101610000820FFF746F994E0E448844208D101210C
:101620001020FFF73EF900211020FFF73AF988E07B
:10163000DF48844208D101212020FFF732F9002140
:101640002020FFF72EF97CE0DA48844208D10121FE
:101650004014FFF719F900216014FFF715F970E045
:10166000D548844209D10121C804FFF70DF90021B2
:101670004FF40020FFF708F963E0D048844209D115
:1016800001210805FFF700F900214FF48010FFF752
:10169000FBF856E0CA48844209D101214805FFF70A
:1016A000F3F800214FF40010FFF7EEF849E0C548C9
:1016B000844208D101214020FFF7F3F800214020A7
:1016C000FFF7EFF83DE0C048844208D101218020B7
:1016D000FFF7E7F800218020FFF7E3F831E0BB488F
:1016E000844208D101218015FFF7DBF80021A01505
:1016F000FFF7D7F825E0B648844209D10121080454
:10170000FFF7C2F800214FF48030FFF7BDF818E072
:10171000B048844209D101214804FFF7B5F80021FF
:101720004FF40030FFF7B0F80BE0AB48844208D12B
:1017300001218804FFF7A8F800214FF48020FFF76B
:10174000A3F810BD00220288944B98420ED0994B0A
:1017500098420BD0B0F1804F08D0914B984205D001
:10176000904B984202D0904B984204D14FF68F7321
:101770001A404B881A438D4B984207D08C4B9842A5
:1017800004D04FF6FF431A40CB881A4302808B885F
:1017900083850B880385814B98420BD0854B9842FB
:1017A00008D08B4B984205D08A4B984202D08A4B86
:1017B000984201D10B7A038601238382704770B56A
:1017C000002400220023058C4FF6FE763540058468
:1017D000028C8388048B4FF68F752C40B51E2C40ED
:1017E0000D882C43751E2A400D892A434D882A43B3
:1017F0006A4DA8420BD06F4DA84208D0744DA84244
:1018000005D0744DA84202D0734DA84213D14FF6B3
:10181000F7752A404D892A434FF6FB752A408D887B
:101820002A434FF6FF652B404FF6FF552B408D891D
:101830002B43CD892B4383800483CD888586028406
:1018400070BD70B5002400220023058C4FF6EF76A2
:1018500035400584028C8388048B48F6FF752C4044
:101860004FF6FF452C400D884FF6FF7606EA05251A
:101870002C434FF6DF752A400D8906EA05152A43E9
:101880004D8806EA05152A43444DA84202D0494D29
:10189000A8421DD14FF67F752A404D894FF6FF763D
:1018A00006EA05152A434FF6BF752A408D8806EAD9
:1018B00005152A434FF6FF352B404FF2FF752B409D
:1018C0008D8906EA85052B43CD8906EA85052B43DC
:1018D00083800483CD880587028470BD70B50024A1
:1018E00000220023058C4FF6FF6635400584028CEC
:1018F0008388848B4FF68F752C404FF6FC752C40F7
:101900000D882C434FF6FF552A400D894FF6FF7680
:1019100006EA05252A434D8806EA05252A431F4D78
:10192000A84202D0234DA8421DD14FF2FF752A4094
:101930004D894FF6FF7606EA05252A434FF6FF3517
:101940002A408D8806EA05252A434EF6FF752B406E
:101950004DF6FF752B408D8906EA05152B43CD8981
:1019600006EA05152B4383808483CD88858702840E
:1019700070BD70B5002200230024058C4EF6FF7662
:1019800035400584038C8488828B48F6FF752A4095
:101990004FF6FF452A400D8820E00000002C014052
:1019A0000004004000080040000C0040001000400F
:1019B0000014004000340140004C01400050014040
:1019C0000054014000180040001C0040002000406E
:1019D0000040014000440140004801404FF6FF76BE
:1019E00006EA05252A434DF6FF752B400D8906EAC8
:1019F00005352B434D8806EA05352B43FA4DA842A1
:101A000002D0FA4DA84208D14BF6FF752C408D89C3
:101A10004FF6FF7606EA85152C4384808283CD88B5
:101A2000A0F84050038470BD828B4FF2FF331A4000
:101A30008283828B4FF6FF7303EA01231A4382836A
:101A40007047F0B50C461546002200210026078C91
:101A50004EF6FF7C07EA0C070784828B018C4FF659
:101A6000FF7707EA043640F6FF473A404FF6FF7724
:101A700007EA05273A434FF6FF7707EA03373A4369
:101A8000D94FB8420ED0D94FB8420BD0B0F1804FE9
:101A900008D0D74FB84205D0D64FB84202D0D64F63
:101AA000B84206D14DF6FF77394046F480573943A6
:101AB00005E047F6FF57394044F4805739438283A5
:101AC0000184F0BD828B4FF6F3731A408283828BC0
:101AD0000A4382837047F0B50C4615460022002168
:101AE0000026078C4FF6FF6C07EA0C070784828BF1
:101AF000018C4FF6FF7707EA04264FF60C773A4041
:101B00004FF6FF7707EA03172F433A43B64FB84221
:101B10000ED0B64FB8420BD0B0F1804F08D0B44FC2
:101B2000B84205D0B34FB84202D0B34FB84206D145
:101B30004FF6FF57394046F48077394305E04FF2BE
:101B4000FF57394044F48077394382830184F0BDE4
:101B5000028B4FF2FF331A400283028B4FF6FF7362
:101B600003EA01231A4302837047F0B50C46154679
:101B7000002200210026078C4FF6EF7C07EA0C07B5
:101B80000784028B018C4FF6FF7707EA041640F6B4
:101B9000FF473A404FF6FF7707EA03373A434FF6DD
:101BA000FF7707EA05273A438F4FB8420ED08F4F91
:101BB000B8420BD0B0F1804F08D08D4FB84205D05D
:101BC0008C4FB84202D08C4FB84206D14FF6DF7727
:101BD000394046F01007394305E04FF65F7739404A
:101BE00044F01007394302830184F0BD028B4FF6A5
:101BF000F3731A400283028B0A4302837047F0B5E5
:101C00000C46154600220021068C4FF6FE773E401A
:101C10000684028B018C4FF60C7632407E1C06EA5D
:101C200003162E433243704EB0420ED06F4EB04278
:101C30000BD0B0F1804F08D06D4EB04205D06D4E44
:101C4000B04202D06C4EB04206D14FF6FD76314024
:101C500044F00106314305E04FF6F576314044F09B
:101C60000106314302830184F0BD70B505460C4680
:101C70005D4885420ED05D4885420BD0B5F1804F5E
:101C800008D05B48854205D05A48854202D05A4860
:101C9000854200D100E000BF208850B92389A28886
:101CA00061882846FFF7ABFFE1882846FFF79EFFD3
:101CB00025E0208804280AD12389A2886188284643
:101CC000FFF753FFE1882846FFF742FF17E020881F
:101CD00008280AD12389A28861882846FFF7FBFEDD
:101CE000E1882846FFF7EEFE09E02389A288618893
:101CF0002846FFF7A6FEE1882846FFF795FE70BD4F
:101D00002DE9F04105460C4600260127608808B9F8
:101D1000022600E00026A088012801D1022700E069
:101D200001272088A0B92389A28861882846FFF767
:101D300066FFE1882846FFF759FF23893A46314676
:101D40002846FFF712FFE1882846FFF701FF13E05E
:101D50002389A28861882846FFF707FFE188284683
:101D6000FFF7F6FE23893A4631462846FFF747FF3C
:101D7000E1882846FFF73AFFBDE8F0810A884B88E2
:101D80001A438B881A43CB881A430B891A434B8911
:101D90001A438B891A43A0F8442070474FF6FF710D
:101DA000818000210180C180418001727047002143
:101DB000018041808180C180018141818181C18117
:101DC0007047002101804180012181800021C18074
:101DD000018170470021018041808180C1800181A3
:101DE0004181818170470000002C01400034014096
:101DF0000004004000080040000C004021B10288AF
:101E000042F00102028004E002884FF6FE731A409D
:101E10000280704731B1B0F8442042F40042A0F88B
:101E2000442005E0B0F84420C2F30E02A0F844209C
:101E300070471AB183890B43838102E083898B4306
:101E4000838170478182704741EA0203A0F84830DD
:101E500070471AB183890B43838102E083898B43E6
:101E60008381704701894FF6F872114001817047F4
:101E70000A46002101894FF68F73194011430181F1
:101E8000704730B504460D4629462046FFF7F0FF5F
:101E9000208940F00700208130BD2DE9F041044643
:101EA0000D4616461F46602D06D13B46012231469F
:101EB0002046FFF75AFE05E03B4601223146204608
:101EC000FFF79DFE29462046FFF7D2FF208940F00C
:101ED00007002081BDE8F08130B50C460021018962
:101EE000C9B24FF6FF7505EA03251543254329437B
:101EF000018130BD2DE9F04105460E461746984652
:101F0000002443463A4631462846FFF7E5FF2C8930
:101F10004FF6F870044044F007044FF68F70044009
:101F200044F070042C81BDE8F081F0B504460D4604
:101F300016461F463B46324629462046FFF7CCFF51
:101F4000208940F480402081F0BD01858282704765
:101F50000A46002101884FF68F7319401143018012
:101F60007047F0B50C4615461E460021002200239E
:101F70000189028B038C4FF6F877394021434FF6E5
:101F8000FC473A4040F201173A434FF6DD773B40B9
:101F90004FF6FF7707EA06172F433B430181028381
:101FA0000384F0BD0A460021018B4FF68F73194060
:101FB0001143018370470A460021018B48F6FF73E5
:101FC00019404FF6FF7303EA022319430183704758
:101FD0000A460021818B4FF68F731940114381838C
:101FE00070470A460021818B48F6FF7319404FF66F
:101FF000FF7303EA022319438183704721B10288EA
:1020000042F08002028004E002884FF67F731A409B
:102010000280704721B1828842F00402828004E08D
:1020200082884FF6FB731A408280704721B1828804
:1020300042F00802828004E082884FF6F7731A406B
:102040008280704721B1828842F00102828004E0E0
:1020500082884FF6FE731A40828070470A4600213C
:10206000018B4FF6F77319401143018370470A46FD
:102070000021018B4FF2FF7319404FF6FF7303EA03
:1020800002231943018370470A460021818B4FF6D2
:10209000F77319401143818370470A460021818BF1
:1020A0004FF2FF7319404FF6FF7303EA02231943FF
:1020B000818370470A460021018B4FF6FB7319405C
:1020C0001143018370470A460021018B4FF6FF330D
:1020D00019404FF6FF7303EA022319430183704747
:1020E0000A460021818B4FF6FB731940114381830F
:1020F00070470A460021818B4FF6FF3319404FF697
:10210000FF7303EA02231943818370470A460021C3
:10211000018B4FF67F7319401143018370470A46C4
:102120000021018BC1F30E014FF6FF7303EA022376
:102130001943018370470A460021818B4FF67F7354
:1021400019401143818370470A460021818BC1F3F6
:102150000E014FF6FF7303EA022319438183704790
:102160000A460021018C4FF6FD731940114301848A
:1021700070470A460021018C4FF6F773194011434E
:10218000018470470A460021018C4FF6DF73194025
:102190004FF6FF7303EA02131943018470470A469E
:1021A0000021018C4FF67F7319404FF6FF7303EA4D
:1021B00002131943018470470A460021018C4FF62F
:1021C000FF5319404FF6FF7303EA022319430184BA
:1021D00070470A460021018C4FF2FF7319404FF6F9
:1021E000FF7303EA02231943018470470A46002162
:1021F000018C4DF6FF7319404FF6FF7303EA02336B
:1022000019430184704730B5002301248C40A3B2E8
:10221000048C9C430484048C02FA01F5ADB22C4377
:10222000048430BD30B5002304248C40A3B2048C58
:102230009C430484048C02FA01F5ADB22C4304845F
:1022400030BD70B503460020002418461830012523
:102250008D40ACB21D8CA5431D8409B1082909D15C
:1022600000EB6100056825F0700505600568154301
:1022700005600EE00D1FC5F34E052844056825F4E2
:10228000E045056005684FF6FF7606EA022635430D
:10229000056070BD21B1028842F00202028004E0B4
:1022A00002884FF6FD731A400280704721B1028800
:1022B00042F00402028004E002884FF6FB731A40E9
:1022C0000280704721B1828842F08002828004E05F
:1022D00082884FF67F731A408280704702884FF6DB
:1022E000F7731A40028002880A430280704782888E
:1022F0004FF68F731A40828082880A43828070472B
:1023000002894FF6F8731A40028102890A4302815A
:10231000704702894FF67F731A40028102890A438F
:10232000028170478184704781857047818670473C
:102330000187704781877047A0F840107047028876
:102340004FF6FF431A40028002880A43028070471A
:102350000146888E70470146088F70470146888F76
:1023600070470146B1F8400070470146888C7047BD
:102370000146088D704702460020138A0B400BB1BE
:10238000012000E000207047CA430282704730B548
:102390000246002000230024158A05EA01039589DE
:1023A00005EA010413B10CB1012000E0002030BDAA
:1023B000CA4302827047002107E042F6E06100BF95
:1023C0000A1EA1F1010399B2FAD1021EA0F1010384
:1023D00098B2F2D17047FEF782FD00F01AF803F0D0
:1023E000B8FA03E04FF4FA70FFF7E5FFFAE7704739
:1023F00000BFFEE700BFFEE700BFFEE700BFFEE74D
:1024000070477047704710B500F0B5F910BD000077
:10241000704700B587B04FF4E060FEF783FC2520DD
:102420008DF8180000208DF81A0001208DF81B008F
:1024300006A8FEF77CFC01210920FEF70BFA01211A
:102440000420FEF71CF84020ADF8140018208DF889
:10245000170003208DF8160005A99948FDF73EFFE7
:102460008020ADF8140004208DF8170005A99448C9
:10247000FDF734FF01218803FEF7ECF94FF4E1305A
:1024800001900020ADF80800ADF80A00ADF80C008E
:10249000ADF810000C20ADF80E0001A98948FEF738
:1024A00080FA012240F225518648FEF712FB0122F4
:1024B00028218448FEF70DFB012260218148FEF7A8
:1024C00008FB01217F48FEF7F8FA07B000BD00B510
:1024D00087B04FF4E060FEF725FC34208DF818003B
:1024E00000208DF81A0001208DF81B0006A8FEF7C9
:1024F0001EFC01211120FEF7ADF94FF48060ADF80C
:10250000140018208DF8170003208DF8160005A977
:102510006D48FDF7E3FE4FF40060ADF814000420B1
:102520008DF8170005A96848FDF7D8FE0121C804F9
:10253000FEF79DF94FF4165001900020ADF8080009
:10254000ADF80A00ADF80C00ADF810000C20ADF8A5
:102550000E0001A95D48FEF724FA012240F2255140
:102560005A48FEF7B6FA01215848FEF7A6FA07B016
:1025700000BD08B518208DF803004FF49050ADF859
:10258000000003208DF8020069465148FDF7A6FEC1
:1025900004208DF803004FF44060ADF80000694658
:1025A0004B48FDF79BFE08BD002106E00A2100BF55
:1025B0000A1EA1F1010399B2FAD1021EA0F1010392
:1025C00098B2F3D1704710B540F225513D48FEF75F
:1025D00065FB60B13B48FEF7E1FAC4B2204603F068
:1025E00087F940F225513748FEF782FB00BF0821EA
:1025F0003448FEF73DFB30B13248FEF7CFFA0821F0
:102600003048FEF742FB04212E48FEF731FB18B19B
:1026100004212C48FEF739FB02212A48FEF728FB4B
:1026200018B102212748FEF730FB01212548FEF7AB
:102630001FFB18B101212348FEF727FB10BD10B581
:1026400040F225512148FEF729FB20B140F22551E7
:102650001E48FEF74DFB10BD1FB5012144F20500D9
:10266000FEF7F8F84FF4E13000900020ADF80600D6
:10267000ADF80400ADF808004FF44070ADF80C0060
:102680000C20ADF80A0069460E48FEF78AF90121D0
:102690000C48FEF712FAFFF76CFF1FBD00BF704732
:1026A00070B504460D46E1B20648FEF773FA00BF66
:1026B00040210448FEF7DCFA0028F9D0204670BD1E
:1026C000000C01400038014000100140004C004067
:1026D0000008014030B50146B1F1807F01D30120EF
:1026E00030BD21F07F40401E4FF0E0225061501776
:1026F0000F22002807DA13071D0E234B00F00F04EA
:10270000241F1D5503E013071C0E204B1C5400BF53
:1027100000204FF0E0229061072010610020DFE7E9
:1027200010B5044642F22830FFF7D4FF6FF00400E2
:10273000FEF747FB1648046000BF154801680068B3
:10274000401E134A10600029F7D110BD10B5044691
:102750005A20FFF7BFFF6FF00400FEF732FB0C4872
:10276000046000BF0A4801680068401E084A106003
:102770000029F7D110BD0648006820B10448006860
:10278000401E03490860704718ED00E000E400E0D7
:102790002C000020FAA07047FB48704770B5054632
:1027A0000C46204603F05BF970BD70B505460C463B
:1027B000204603F083F970BD2DE9F05F0546884699
:1027C00092462C46A06800EB08096068484525D26F
:1027D000D4F814B060684600BBF1000F01D1DFF8F7
:1027E000ACB300E076004E45FCD33146584602F0CB
:1027F0007CFD07460FB9BDE8F09F3846D4E90221B9
:1028000003F015FB206920B15846E16802F075FD20
:1028100001E001202061E760666000BFD4E9022189
:1028200088184246514603F002FBC4F8089000BFE6
:10283000E1E70146102901D201207047B1F5006F90
:1028400001D20220F9E7B1F5802F01D20320F4E78D
:10285000B1F1007F01D20420EFE70520EDE701464A
:10286000802901D201207047B1F5804F01D20220AA
:10287000F9E7B1F5001F01D20320F4E7B1F1805F61
:1028800001D20420EFE70520EDE70146002901DA37
:102890000A207047802901D20120FAE7B1F5804F64
:1028A00001D20220F5E7B1F5001F01D20320F0E7C5
:1028B000B1F1805F01D20420EBE70520E9E770B5B4
:1028C00005460E4634461CB92846FFF7C8FF70BDC2
:1028D000082C01D20520FAE7B4F5806F01D206205A
:1028E000F5E7B4F5003F01D20720F0E7B4F1807FAF
:1028F00001D20820EBE7B4F1004F01D20920E6E74E
:102900000A20E4E7F0B502460B4600210846511ABA
:1029100073EB00000FDA0020514260EB0306022542
:102920000024A1FB050706FB057501FB0451401EB1
:1029300061EB0401F0BD02210024A2FB010503FBB1
:10294000015102FB0411F5E72DE9F05F80460D46C9
:1029500092460026DAF8007015B90020BDE8F09F15
:10296000D8F80400FFF765FF814698F81C0000F0D6
:10297000010008B909FB05F998F80900112814D2DB
:10298000DFE800F0150948392B4E20493A4F4A50EC
:10299000541456667300002405E057F8240002F032
:1029A000B5FC0644641CAC42F7D36EE000BF0024C3
:1029B00005E057F82400FFF768FF0644641CAC42AA
:1029C000F7D362E0002405E057F82400FFF747FF43
:1029D0000644641CAC42F7D357E0002408E007EB40
:1029E000C400D0E90021104602F0D6FC0644641C65
:1029F000AC42F4D349E000BF002408E007EBC40177
:102A0000D1E900211046FFF75AFF0644641CAC428E
:102A1000F4D33AE000BF00BF042000FB056634E0B9
:102A200000BF00BF082000FB05662EE02E442CE00E
:102A300000240AE057F8240003F0DAF983465846E8
:102A4000FFF70DFF58440644641CAC42F2D31CE06F
:102A5000002407E057F834B05846FFF700FF584409
:102A60000644641CAC42F5D30FE000240AE057F89A
:102A7000240000F04FF883465846FFF7F0FE584414
:102A80000644641CAC42F2D300BF00BF98F81C009F
:102A900000F0010018B13046FFF7E1FE814409EB78
:102AA00006005BE770B504460E461546607A1028AE
:102AB00002D0607A0E2807D1296811B1A069884236
:102AC00001D1002070BD03E0306808B90020F9E7AB
:102AD0002946204600F091F8F4E770B504460E460A
:102AE00015463068616888420DD1607A102802D09E
:102AF000607A0E2809D1296811B1A069884201D1F4
:102B0000002070BD01E00020FBE72946204600F0D0
:102B100074F8F6E72DE9F0470446002620680068BF
:102B20001B49884200D105E040F2832219A11F48C9
:102B300003F0FAF800254AE02068C06905EB45017A
:102B400001EBC50100EB8107386900EB0408F86868
:102B500000EB0409387A28B94146384600F04DF8B0
:102B6000064433E0387A012829D1387F00F0040088
:102B7000F0B1424649463846FFF7AFFF064425E02C
:102B8000312E322E31000000114A0F00300000209B
:102B9000F9EEAA282E2E5C557365725C70726F7404
:102BA0006F6275662D632E6300000000C06B000825
:102BB000424649463846FFF775FF064406E042465E
:102BC0003846D9F80010FFF7BFFE06446D1C206898
:102BD0008069A842B0D8002509E0A06800EB05177D
:102BE0003868FFF726FEB968084406446D1C606823
:102BF000A842F2D83046BDE8F0872DE9F0410646FC
:102C00000D467068FFF715FE0446707A11285BD2F6
:102C1000DFE800F0100929211A2C152A222D323460
:102C2000300F37454C00286802F070FB2044BDE8A7
:102C3000F08100BF2868FFF728FE2044F7E72868E6
:102C4000FFF70DFE2044F2E7D5E90021104602F01F
:102C5000A3FB2044EBE700BFD5E900211046FFF7B6
:102C60002EFE2044E3E700BF201DE0E700BF04F193
:102C70000800DCE7601CDAE7201DD8E704F1080053
:102C8000D5E72F681FB1384603F0B2F800E0002006
:102C900080464046FFF7E3FD20444044C7E72F68E5
:102CA0003846FFF7DCFD20443844C0E72F681FB1E9
:102CB0003846FFF72FFF00E0002080464046FFF730
:102CC000CEFD20444044B2E740F2C912AFF23C11BD
:102CD000FCA003F029F830B502460020802A21D359
:102CE000D3B243F080050346401CCD54D209802A5C
:102CF00018D3D3B243F080050346401CCD54D2090B
:102D0000802A0FD3D3B243F080050346401CCD5434
:102D1000D209802A06D3D3B243F080050346401C73
:102D2000CD54D2090346401CCA5430BD70B5054687
:102D30000C46002D1CDAE8B240F0800020708020A4
:102D400040EAE5106070802040EAA530A070802045
:102D500040EA6550E070802040EA25702071FF2035
:102D60002072E071A0716071012060720A2070BD54
:102D700021462846FFF7AFFFF9E72DE9F047074660
:102D80008846144645463E462DB921463046FFF753
:102D9000A2FFBDE8F087F0B240F0800020708020F4
:102DA00040EAD6106070802040EA9630A070802003
:102DB00040EA5650E070082D05D2280140EA16700E
:102DC00020710520E5E76807400E40EA167040F0E4
:102DD00080002071ED084FF0050907E0E8B240F0EF
:102DE0008002484609F101092254ED09802DF5D2EF
:102DF000484609F1010925544846CAE72DE9F04142
:102E000004460D46B4F1005F05D2E0002946FFF705
:102E100062FFBDE8F0810020C00040EA5471E60086
:102E20002A463046FFF7A9FFF3E770B504460D4682
:102E300029462068FFF7E2FF0646287821790843F3
:102E40002870A819D4E9022102F0F1FFA0683044EB
:102E500070BD2DE9F05F81460E4614462146D9F833
:102E60000400FFF7CBFF054699F8090011287BD233
:102E7000DFE800F01309382D23441B392E453A466C
:102E800052125A7B9100207820706119306802F04C
:102E900090FA2844BDE8F09F00BF207820706119A7
:102EA0003068FFF743FF2844F4E720782070611969
:102EB0003068FFF710FF2844ECE720782070621993
:102EC000D6E90071384602F07FFA2844E2E700BFF5
:102ED000207820706219D6E900713846FFF74DFF5F
:102EE0002844D7E700BF00BF207840F005002070DD
:102EF0006119306802F077FA2844CBE700BF00BFC1
:102F0000207840F0010020706219D6E9007138463F
:102F100002F06DFA2844BDE720782070611930680E
:102F200002F06CFA2844B5E7207840F002002070E7
:102F300004EB0508376827B9002088F80000012055
:102F400010E0384602F054FF824641465046FFF7F3
:102F5000C2FE834608EB0B005246394602F067FF7B
:102F60000BEB0A00284495E71FE0207840F00200B0
:102F700020706719D6F8008039464046FFF7ABFE4F
:102F8000824607EB0A004246716802F050FF0AEBE6
:102F9000080028447EE7207840F002002070611984
:102FA000306800F0FDF9284474E740F21B42AFF2AC
:102FB0001C4144A002F0B8FE10B50446112C20D2EA
:102FC000DFE804F00A090C1211140B0D13150E168C
:102FD000180F1A1D1B0000BF00BF00BF00BF00BFBD
:102FE00000BF042010BD00BF00BF00BF00BF00BF76
:102FF0000820F7E70420F5E700BF0420F2E70820E7
:10300000F0E740F28642AFF274412EA002F08CFE4F
:1030100070B505460E461446E2003146284602F0D9
:1030200006FF70BD70B505460E461446A200314637
:10303000284602F0FCFE70BD0146022903D0072994
:1030400001D00A2901D104207047052903D009299C
:1030500001D00B2901D10820F6E70120F4E72DE982
:10306000FF4F87B082460D461F460998D0F8008072
:103070009AF81C0000F00100002873D01DB9002050
:103080000BB0BDE8F08F3946DAF80400FFF7B6FE62
:103090008146387840F002003870CDF818909AF8E0
:1030A0000900FFF7C9FF684305900598FFF7D7FBB4
:1030B0008346D94407EB09069AF809000E2874D212
:1030C00002E0000030000000DFE800F01C2B075C8D
:1030D0003A114D085D120913701B00BF00BF2A464C
:1030E00041463046FFF79EFF06EB850675E000BFC0
:1030F00000BF2A4641463046FFF78AFF06EBC50669
:103100006BE000BFCDF80880002407E0029951F879
:1031100024003146FFF70AFE0644641CAC42F5D396
:103120005BE0CDF80880002407E0029951F8240004
:10313000314602F03EF90644641CAC42F5D34CE043
:10314000CDF8088000240AE0029800EBC40103C90E
:103150003246CDE9000102F037F90644641CAC4266
:10316000F2D33AE064E0CDF80880002407E0029949
:1031700051F824003146FFF7AEFD0644641CAC4212
:10318000F5D32AE000BFCDF8088000240AE00298B9
:1031900000EBC40103C93246CDE90001FFF7EDFDA4
:1031A0000644641CAC42F2D317E00EE0CDF8088070
:1031B000002407E0029951F82400314602F01EF97C
:1031C0000644641CAC42F5D307E04FF4A662AFF2AC
:1031D0003C61AFF2101002F0A7FD00BF07EB090041
:1031E000301A04900498FFF73AFB03900398834544
:1031F00016D00BF101010398884200D106E040F29D
:103200003652AFF27061F7A002F08EFD07EB0901B4
:1032100007EB0902501C049A02F04EFE09F1010965
:10322000069839180498FFF756FD0498484427E794
:1032300000269AF80900FFF7BFFE8146002407E048
:10324000BA1941465046FFF704FE0644C844641CC0
:10325000AC42F5D3304613E72DE9F04104460E4663
:1032600015461F46607A102802D0607A0E2808D1D1
:10327000296811B1A069884202D10020BDE8F0811F
:1032800003E0306808B90020F8E73A4629462046AE
:10329000FFF7DFFDF2E72DE9F04104460E46154643
:1032A0001F463068616888420ED1607A102802D0CB
:1032B000607A0E280AD1296811B1A069884202D12A
:1032C0000020BDE8F08101E00020FAE73A462946F7
:1032D0002046FFF7BEFDF4E72DE9F04705460F460F
:1032E000002428680068CA49884200D106E040F2FC
:1032F0005C52AFF26071C74802F016FD00263BE059
:103300002868C06906EB460101EBC60100EB8108A5
:10331000D8F8100000EB0509D8F80C0000EB050AFE
:1033200098F8080030B93A1949464046FFF791FD30
:10333000044420E098F80800012814D198F81C00F3
:1033400000F0040038B13B194A4651464046FFF7A9
:10335000A2FF04440FE03B194A4651464046FFF79E
:103360007BFF044407E03B194A464046DAF8001068
:10337000FFF775FE0444761C28688069B042BFD808
:10338000002607E0AA6802EB06103919FFF74DFD89
:103390000444761C6868B042F4D82046BDE8F08743
:1033A0002DE9F04106460C4626B900202070012088
:1033B000BDE8F081611C3046FFF78EFF05462846C8
:1033C000FFF74DFA0746012F04D0E0192A46611C89
:1033D00002F072FD21462846FFF77DFC2844E7E70E
:1033E000FEB504460D4669462068FFF707FD064610
:1033F0009DF80000217908438DF800006A463146A7
:1034000028462B689847D4E9021228462B6898472B
:10341000A0683044FEBD2DE9FF5F81460D46904611
:103420001E46002799F809000E2872D2DFE800F046
:103430001022075B460B34085C0C090D720F00BFAD
:1034400000BFAF0086E000BF00BFEF0082E000BF1A
:1034500000240CE058F824006946FFF767FC824618
:103460006A4651463046336898475744641CAC421C
:10347000F0D36CE000240CE058F82400694601F019
:1034800098FF82466A46514630463368984757440B
:10349000641CAC42F0D35AE000240CE058F824003D
:1034A0006946FFF718FC82466A4651463046336843
:1034B00098475744641CAC42F0D348E000240FE026
:1034C00008EBC4006A46D0E900B1584601F07CFF21
:1034D00082466A4651463046336898475744641CD2
:1034E000AC42EDD333E000BF00240FE008EBC40092
:1034F0006A46D0E900B15846FFF73FFC82466A466B
:1035000051463046336898475744641CAC42EDD36B
:103510001DE014E000240CE058F82400694601F096
:103520006DFF82466A465146304633689847574495
:10353000641CAC42F0D3284604B0BDE8F09F4FF4C1
:10354000DC62AFF6B011AFF2844002F0EDFB00BFD9
:103550003846F1E7424639463046336898473846A0
:10356000EAE72DE9F04780460D461646002798F811
:1035700009000E2872D2DFE800F0111D075E4F0C23
:1035800029085F0D090E6F1000BF00BFA800BDE83D
:10359000F08700BF00BFE800F9E700BFB146002494
:1035A00005E059F82400FFF770F90744641CAC42A9
:1035B000F7D35BE0B146002405E059F8240001F0A0
:1035C000A5FE0744641CAC42F7D34FE0B14600248B
:1035D00005E059F82400FFF742F90744641CAC42A7
:1035E000F7D343E061637475616C5F6C656E6774FB
:1035F000685F73697A65203D3D206C656E6774680D
:103600005F73697A655F6D696E202B203100000061
:10361000F9EEAA28C06B0008B146002408E009EBC7
:10362000C400D0E90021104601F0B6FE0744641C36
:10363000AC42F4D31AE000BFB146002408E009EB25
:10364000C400D0E900211046FFF739F90744641C93
:10365000AC42F4D30AE001E0284698E740F27A62EF
:10366000AFF6D021AFF2A45002F05EFB00BF3846A7
:103670008DE72DE9F04F85B004460F4692461D4672
:10368000DAF800801FB9002005B0BDE8F08F207F78
:1036900000F0010000282FD069466068FFF7AEFBFC
:1036A0000646424639462046FFF75BFF81469DF8B5
:1036B000000040F002008DF800000DEB06014846C6
:1036C000FFF709FB06446A46314628462B689847AF
:1036D0002B46424639462046FFF79DFE8346CB45A2
:1036E00000D106E040F2FC62AFF65831F8A002F0DB
:1036F0001BFB06EB0900C7E74FF00009607AFFF7F4
:103700005BFC8346002607E02A464146204600F03F
:10371000A6F88144D844761CBE42F5D34846B3E7A8
:103720002DE9F04104460E4615461F46607A1028E2
:1037300002D0607A0E2808D1296811B1A0698842A8
:1037400002D10020BDE8F08103E0306808B9002014
:10375000F8E73A462946204600F081F8F2E72DE9DD
:10376000F04104460E4615461F463068616888429F
:103770000ED1607A102802D0607A0E280AD129680A
:1037800011B1A069884202D10020BDE8F08101E0BA
:103790000020FAE73A462946204600F060F8F4E7B0
:1037A0002DE9F04704468846002620680068CD4988
:1037B000884200D106E040F22372AFF62841CA48A1
:1037C00002F0B2FA002536E02068C06905EB450139
:1037D00001EBC50100EB8107386900EB0409F868CB
:1037E00000EB040A387A30B942464946384600F0C0
:1037F00036F806441EE0387A012813D1387F00F0ED
:10380000040038B143464A4651463846FFF7A7FF01
:1038100006440FE043464A4651463846FFF780FFCC
:10382000064407E043464A463846DAF80010FFF7F8
:1038300020FF06446D1C20688069A842C4D800257A
:1038400007E0A16801EB05104146FFF7C9FD0644FA
:103850006D1C6068A842F4D83046BDE8F0872DE9B9
:10386000F047CCB080460E46154647A9D8F804006C
:10387000FFF7C4FA044698F80900112874D2DFE86B
:1038800000F01A095F4C3A742A604D7561768A1906
:103890009ABAD6009DF81C018DF81C0147AA11198F
:1038A000306801F086FD044447AA214628462B686B
:1038B0009847FDE000BF9DF81C018DF81C0147AA48
:1038C00011193068FFF732FA044447AA2146284606
:1038D0002B689847ECE09DF81C018DF81C0147AA65
:1038E00011193068FFF7F7F9044447AA2146284622
:1038F0002B689847DCE09DF81C018DF81C0147A857
:103900000219D6E90091484601F05EFD044447AA39
:10391000214628462B689847CAE000BF9DF81C0145
:103920008DF81C0147A80219D6E900914846FFF717
:1039300024FA044447AA214628462B689847B7E052
:1039400000BF00BF9DF81C0140F005008DF81C0170
:1039500047AA1119306801F046FD044447AA2146E0
:1039600028462B689847A3E09AE000BF00BF9DF867
:103970001C0140F001008DF81C0147A80219D6E98E
:103980000091484601F033FD044447AA21462846E9
:103990002B6898478CE09DF81C018DF81C0147AA04
:1039A0001119306801F02AFD044447AA214628462F
:1039B0002B6898477CE037681FB1384602F018FA48
:1039C00000E0002081469DF81C0140F002008DF8C7
:1039D0001C0147A801194846FFF77DF9044447AA8E
:1039E000214628462B6898473A46494628462B6880
:1039F00098474C445CE0B146D9F800709DF81C0132
:103A000040F002008DF81C0147A801193846FFF765
:103A100062F9044447AA214628462B689847D9F8FA
:103A20000420394628462B6898473C4440E0D6F8A5
:103A3000009018222D4901A802F080FA07A80490EE
:103A40009DF81C0140F002008DF81C01B9F1000F37
:103A500001D1002704E001A94846FFF7A1FE07466F
:103A600047A801193846FFF736F9044447AA21460A
:103A700028462B689847049A394628462B68984769
:103A80003C4400BF059848B1069820B104990698B7
:103A90004268904702E0049802F010F800BF07E087
:103AA00040F2F552AFF61471AFF6E81002F03CF9AF
:103AB00000BF20464CB0BDE8F087F0B5064614467E
:103AC00016B94FF0FF30F0BD0022354633E000005C
:103AD000746D70203D3D207061796C6F61645F6C26
:103AE000656E0000F9EEAA28C06B00089464000817
:103AF00002EB550351F83300A04201DD9D1A19E095
:103B0000581C01EBC000406801EBC3077F68C01B75
:103B100051F833703844A04204DC581C57193D1A40
:103B2000024607E051F83300201A01EBC3077F6813
:103B30003844C8E700BF012DDAD8B5B101EBC200A7
:103B40004368501C01EBC0004068C71A51F83200AE
:103B5000A04209DC51F832003844A04204DD51F89B
:103B60003200201A1844AEE700BF4FF0FF30AAE73A
:103B7000F0B5064615461F46052E01D9052000E082
:103B8000304684460878C0F3C3030424087800F064
:103B900007003870087800F0800010B92B60012011
:103BA000F0BD012211E0885C00F0800030B1885C3B
:103BB00000F07F00A0400343E41D05E0885CA040C6
:103BC00003432B60501CEBE7521C6245EBD30020F3
:103BD000E6E710B50246002005E011F8014B04F0BD
:103BE000800303B9401C131EA2F10102F5D110BDE0
:103BF0002DE9F74F86B081460E463068C56900242E
:103C000037E104EB440000EBC40005EB8000007AD0
:103C100002287AD104EB440000EBC40005EB8000DD
:103C2000C06800EB090704EB440000EBC40005EB9F
:103C30008000006900EB090A04EB440000EBC400BB
:103C400005EB8000C06800EB060804EB440000EBC5
:103C5000C40005EB800000693044059038680028F6
:103C600051D0D8F80000002842D004EB440101EB09
:103C7000C40105EB8101487AFFF79EF98346386855
:103C8000D8F80020104400FB0BF1089801F02DFB40
:103C90000490049818B9002009B0BDE8F08F386886
:103CA00000FB0BF2DAF80010049802F0C0F8D8F824
:103CB000003003FB0BF2059B1968D7F800C0049B8A
:103CC0000CFB0B3002F0B3F805980168089801F07E
:103CD00014FBDAF80010089801F00FFBDDE904018D
:103CE00008603868D8F800100844C8F8000006E0FA
:103CF0003868C8F80000DAF8001005980160002064
:103D00003860CAF80000B2E0FFE704EB440000EBC3
:103D1000C40005EB8000007A0128F4D104EB4400D4
:103D200000EBC40005EB8000C06800EB090B04EB5E
:103D3000440000EBC40005EB8000C06830440590EF
:103D400004EB440000EBC40005EB8000007F00F0B2
:103D50000400A8B10598006888B9DBF80020336832
:103D6000D3E90901FFF7A9FE02903068C169029802
:103D700000EB400202EBC00001EB800706E077E0B9
:103D800004EB440000EBC40005EB80070020049026
:103D9000386900EB0908386900EB060AB869039036
:103DA000787A0E282FD00F2819D0102839D1D8F8BA
:103DB00000000290DAF800000190029870B10198BA
:103DC00050B1089ADDE90110FFF712FF08B9002091
:103DD00062E70020049001E0012004902CE0D8F874
:103DE0000410DAF80420039851B110B143688B42F3
:103DF00006D01AB120B14368934201D1012300E0FB
:103E00000023049318E0D8F80010DAF80020039893
:103E1000814203D0824201D1012300E000230493B8
:103E20000AE0DBF8000020B10598006808B901201D
:103E300000E00020049000BF00BF0498B0B1787A81
:103E4000FFF7BAF8029041465046029A01F0EFFFA0
:103E50004046029902F0A4F8F86830B1DBF800108F
:103E6000059801600020CBF8000000BF00BF00BF34
:103E7000641C30688069A0423FF6C3AE01200BE7A6
:103E80002DE9F04106460C4617461D46112E31D24B
:103E9000DFE806F0212209242515230A26160B1730
:103EA0002D203132330000BF00BF04F0030010B1F9
:103EB0000020BDE8F081A00828600120F9E700BFDC
:103EC00000BF04F0070008B10020F2E7E008286016
:103ED0000120EEE700BF00BF00BF00BF00BF00BF72
:103EE00039462046FFF775FE28600120E1E72C6087
:103EF0000120DEE700BF00BF00BF0020D9E7024677
:103F00000B7803F07F00012A17D94B7803F07F0369
:103F100040EAC310022A10D98B7803F07F0340EAED
:103F20008330032A09D9CB7803F07F0340EA43505A
:103F3000042A02D90B7940EA037070472DE9F05F3B
:103F400081460C46B9F1050F06D221464846FFF7D7
:103F5000D6FF0021BDE8F09F207800F07F02607856
:103F600000F07F00C117C90141EA50614FEAC01C4F
:103F7000104640EA0C0041EAE272A17801F07F03AA
:103F8000D917890341EA934140EA83301143E2782B
:103F900002F07F03DA17520542EAD32240EA435582
:103FA00041EA02064FF01C0A04270EE0E05D00F033
:103FB0007F084FEAE87B52464046594601F0A5FD8E
:103FC00005430E430AF1070A7F1C4F45EED32846EE
:103FD0003146BFE730B502460B46012111400020B3
:103FE0004140404001430CD058084FEA32014FF0A5
:103FF00000044D4264EB00006C1E60F1000120469D
:1040000030BD59084FEA3200FAE702460B4600215C
:1040100006E0585C00F07F0008B101207047491CA1
:104020009142F6D30020F9E72DE9F047064688468D
:104030000EB9BDE8F087356830680068F8498842F5
:1040400000D105E040F65942F649F74801F06CFE10
:10405000B8F1000F01D1DFF8D483002030600024D4
:10406000FAE004EB440101EBC401E86900EB8100D4
:10407000007F00F0040098B104EB440101EBC4019F
:10408000E86900EB8100406804EB440202EBC402E3
:10409000E96901EB8201C9687158884200D0DAE011
:1040A00004EB440101EBC401E86900EB8100007AF4
:1040B00002285FD104EB440101EBC401E86900EB85
:1040C0008100C06856F8009004EB440101EBC40184
:1040D000E86900EB810000693758002F49D004EBF4
:1040E000440101EBC401E86900EB8100407A0E282D
:1040F0000CD14FF0000A06E057F82A10404601F0B4
:10410000FCF80AF1010ACA45F6D32EE004EB44019B
:1041100001EBC401E86900EB8100407A0F280DD162
:104120004FF0000A07E007EBCA004168404601F083
:10413000E4F80AF1010ACA45F5D316E004EB44019C
:1041400001EBC401E86900EB8100407A10280CD132
:104150004FF0000A06E057F82A004146FFF764FFD7
:104160000AF1010ACA45F6D300BF3946404601F0BC
:10417000C4F86FE004EB440101EBC401E86900EB13
:104180008100407A0E2818D104EB440101EBC401F0
:10419000E86900EB8100006937586FB104EB440116
:1041A00001EBC401E86900EB81008069B84203D0EB
:1041B0003946404601F0A1F84CE004EB440101EB24
:1041C000C401E86900EB8100407A0F281FD104EB9D
:1041D000440101EBC401E86900EB8100006930444F
:1041E000476804EB440101EBC401E86900EB81007E
:1041F000D0F8189057B1B9F1000F03D0D9F80400E6
:10420000B84203D03946404601F077F822E004EB8B
:10421000440101EBC401E86900EB8100407A1028F9
:1042200018D104EB440101EBC401E86900EB810003
:10423000006937586FB104EB440101EBC401E86930
:1042400000EB81008069B84203D041463846FFF751
:10425000EBFE00BF00BF641CA869A0423FF601AF9F
:10426000002407E0B06800EB0410C168404601F08C
:1042700044F8641C7068A042F4D8B06818B1404695
:10428000B16801F03AF83146404601F036F800BF17
:10429000CFE62DE9F05F05460E4617469846D5F85D
:1042A0000890D9F80C00C41999F80900FEF784FEAB
:1042B0008246D6F800B020680AFB00B100234246CF
:1042C000284600F0F0FC10B90020BDE8F09F2068FF
:1042D000401C20600120F8E702460B460A2A00D95C
:1042E0000A22002105E0585C00F0800000B902E0DD
:1042F000491C9142F7D300BF914201D10020704781
:10430000481CFCE72DE9F74F84B00546A8680390E8
:104310000398C168069801EB000A0399487AFEF7F2
:104320004BFE029005980168DAF80020029800FB25
:1043300002186979286947186979E868441A0026DB
:104340000398407A0E286AD2DFE800F0163207910F
:10435000720E4F08920F0910AD1500BF00BF6979AA
:10436000E868401A8608BFE000BF00BF6979E868C6
:10437000401AC608B8E000BF17E039462046FFF7EC
:10438000ABFF8346BBF1000F03D1002007B0BDE8AF
:10439000F08F3946584601F063F83146761C48F8EC
:1043A00021005F44A4EB0B0400BF002CE5D193E097
:1043B00018E039462046FFF78FFF8346BBF1000F18
:1043C00001D10020E2E739465846FFF798FD0190F9
:1043D00001F04EF83146761C48F821005F44A4EB0A
:1043E0000B0400BF002CE4D176E015E039462046EE
:1043F000FFF772FF8346BBF1000F01D10020C5E734
:1044000039465846FFF77BFD3146761C48F82100B7
:104410005F44A4EB0B0400BF002CE7D15CE055E047
:10442000F9EEAA28942B0008C06B00083000002089
:104430001AE039462046FFF74FFF8346BBF1000FD5
:1044400001D10020A2E739465846FFF777FDCDE9B4
:104450000001FFF7BFFD3246761C08EBC20203C223
:104460005F44A4EB0B0400BF002CE2D134E000BF9A
:1044700016E039462046FFF72FFF8346BBF1000FB9
:1044800001D1002082E739465846FFF757FD3246F2
:10449000761C08EBC20203C25F44A4EB0B0400BF0E
:1044A000002CE6D118E026464FF000090BE017F883
:1044B0000900012801DD002068E717F8090048F825
:1044C000290009F10109B145F1D305E040F6862242
:1044D000FD49FEA001F028FC00BFDAF800003044DE
:1044E000CAF80000012051E7029806FB00F23946A5
:1044F000404601F09CFCDAF800003044CAF80000A5
:10450000012043E701460E2905D00F2903D01029C9
:1045100001D0012070470020FCE72DE9F04104465E
:104520000F4615461E46012332463946204600F006
:10453000BAFB10B90020BDE8F081A068C06818B1CE
:104540000120A168C96868500120F4E72DE9FC5FEB
:1045500080460C4615461F46D8F80800C06800EB98
:104560000509D9F80000002858D0D9F800202B6898
:10457000D3E90901FFF7A1FA01902868C169019800
:1045800000EB400202EBC00001EB8006707A0E28BF
:1045900004D00F2812D0102835D124E0A246D6F836
:1045A00018B0DAF8000040B1DAF80000584504D03D
:1045B0003846DAF8001000F0A0FE25E0A246D6F852
:1045C00018B0DAF8040068B1BBF1000F05D0DAF8D2
:1045D0000400DBF80410884204D03846DAF80410EE
:1045E00000F08BFE10E0A246D6F818B0DAF8000012
:1045F00040B1DAF80000584504D03946DAF8000036
:10460000FFF712FD00E000BF00BF707AFEF7D4FC98
:1046100000902046009901F0C3FC00BF01233A46F8
:104620002146404600F03FFB10B90020BDE8FC9F4A
:10463000D8F80000C9F800000120F7E72DE9F0479D
:1046400004460D469046A768E7B96968481C68604B
:10465000A86800EB01162068306020793071E068AE
:10466000B0604046E16800F040FEF060F06810B9CC
:104670000020BDE8F087B2682169F06801F0D7FB3F
:104680000120F6E7386900EB0509387A20B10128E6
:1046900009D0022831D118E001234246494620467C
:1046A00000F001FBE5E7387F00F0040030B143463D
:1046B0002A4649462046FFF749FFDAE743462A469D
:1046C00049462046FFF729FFD3E7207902280DD17C
:1046D000387F00F0010018B9787AFFF713FF28B18E
:1046E0002A4649462046FFF70DFEC2E743462A46C2
:1046F00049462046FFF7CDFDBBE740F6CC22724984
:1047000072A001F011FB70B504460E463046616997
:1047100001F068FC346000255AE005EB450101EB2F
:10472000C501E06900EB8100806900284FD005EBEE
:10473000450101EBC501E06900EB8100007A022828
:1047400045D005EB450303EBC503E26902EB8302A9
:104750001269901905EB450303EBC503E26902EB0F
:104760008302916905EB450303EBC503E26902EBA4
:104770008302527A112A28D2DFE802F0090A0B12CA
:1047800013140C0D15160E171C0F241F250000BF47
:1047900000BF00BF00BF00BF00BF0A68026014E096
:1047A00000BF00BF00BF00BF00BF0A6802604A68C8
:1047B00042600AE00A68026007E00A6802604A682C
:1047C000426002E000BF016000BF00BF00BF6D1C7F
:1047D000A069A842A1D870BD70B504460D46284610
:1047E000E16A884770BD2DE9FF4FFDB00446DDF852
:1047F000FCA180987C90E0697B904FF0000800203D
:104800001390129010900DF12C0B0A9030492068F3
:10481000884200D105E040F649322B492DA001F035
:1048200083FA7E9808B939487E9061697E9800F0D5
:104830005CFD074627B900200DF5017DBDE8F08F2E
:104840002BA81490A069C01DC0080F900F981028C5
:104850000FD90F997E9800F048FD8346BBF1000FF9
:1048600005D139467E9800F048FD0020E4E701209C
:104870000A9058460F9901F093FBE06A20B139463F
:104880002046FFF7A9FF03E039462046FFF73BFF2C
:104890001CE108AB09AA50467C99FFF769F907901B
:1048A000079800B9E6E17B9820B17B9840680999A8
:1048B00088423ED0D4E90901099AFFF7FEF8019039
:1048C0000198002829DA23E0942B0008300000002A
:1048D000F9EEAA282864657363292D3E6D61676926
:1048E00063203D3D2050524F544F4255465F435F39
:1048F0005F4D4553534147455F44455343524950EB
:10490000544F525F4D4147494300000030000020A2
:1049100000261298401C12900AE0E169019800EB11
:10492000400202EBC00001EB80067B9601981090DC
:1049300000E07B9E86B1307A70B910980BEBD00006
:104940000078109901F00702012191400843C1B29B
:1049500010980BEBD000017007997C9808447C906C
:104960000798AAEB000A099802909DF820008DF89C
:104970000C0004967C98069000208DF80D009DF8A0
:10498000200030B101281DD0022822D0052835D1C1
:104990002DE0BAF10A0F01D2524600E00A22114678
:1049A000002006E07C9A125C02F0800202B902E06C
:1049B000401C8842F6D300BF884200D15AE1421C15
:1049C00005921CE0BAF1080F00D253E108200590CF
:1049D00015E001AA50467C9900F018FD0590059855
:1049E00000B947E10198C0B28DF80D0007E0BAF1B7
:1049F000040F00D23EE10420059000E03AE100BF40
:104A000008F1040001218140139881421AD100204D
:104A10001390B8F1160F00D12CE108F1010808F14C
:104A20000400142101FA00F0019001997E9800F031
:104A30005CFC14A941F8280014A850F8280000B91B
:104A400018E100BF14A951F8283013994A1C01EB52
:104A5000810103EB81001392142202A901F06EFA86
:104A600066B3307A022829D1F068384401909DF865
:104A7000200002281CD1307F00F0010018B9707AA4
:104A8000FFF740FDA0B19DF80DC0069B03EB0C02A3
:104A9000059BA3EB0C01707A6B46FFF7F1F900B9A7
:104AA000E8E001980068009901440198016004E081
:104AB00001980068401C0199086000BF05997C9826
:104AC00008447C900598AAEB000A00BFBAF1000FD9
:104AD0007FF4DFAE002567E005EB450101EBC50182
:104AE000E06900EB8106307A02283BD1707AFEF74C
:104AF00063FA0990F068384408900898006880B319
:104B0000089800680790002108980160386800B193
:104B100005E040F60242FD49FDA001F005F9079AC3
:104B2000099800FB02F17E9800F0DFFB06900698E2
:104B300098B96D1C0DE005EB450101EBC501E0697D
:104B400000EB8106307A022802D10020F16878500B
:104B50006D1CA069A842EED873E0069831697850C0
:104B600000BF20E0307AF0B9B069E0B90BEBD500B6
:104B7000007805F0070201219140084098B96D1CAA
:104B80000DE005EB450101EBC501E06900EB810695
:104B9000307A022802D10020F16878506D1CA0699B
:104BA000A842EED84DE06D1CA069A84294D8129896
:104BB00040B1129801017E9800F097FBB860B86888
:104BC00000B93EE00020119023E01198404501D14A
:104BD000139804E01198001D012101FA00F00990DA
:104BE00014A9119851F82000089000260BE006EB5C
:104BF0008602089901EB820039467E9AFFF71EFD76
:104C000000B91EE0761C09988642F0D31198401C2A
:104C1000119011984045D8D94FF0010907E014A828
:104C200050F829107E9800F068FB09F10109C14590
:104C3000F5D90A9818B159467E9800F05EFB3846BF
:104C4000FAE538467E99FFF7EFF94FF0010907E0E2
:104C500014A850F829107E9800F04FFB09F10109C3
:104C6000C145F5D90A9818B159467E9800F045FB20
:104C70000020E1E539467E9800F03FFB4FF0010946
:104C800007E014A850F829107E9800F036FB09F1CF
:104C90000109C145F5D90A9818B159467E9800F026
:104CA0002CFB0020C8E52DE9FF4F83B004460D46DC
:104CB0009A46E768D4F810902679A068407A1128BF
:104CC00070D2DFE800F00A202D3A4655162E3B56EA
:104CD0002F57680970ABE90000BF1EB1002007B074
:104CE000BDE8F08F4946384600F0BAFB2860012045
:104CF000F5E70EB10020F2E749463846FFF7FFF826
:104D000028600120EBE70EB10020E8E7494638466D
:104D1000FFF7F5F8804600F0ABFB28600120DEE7E6
:104D200000BF00BF052E01D00020D8E700BFD9F892
:104D3000000000BF28600120D1E700BF0EB10020B5
:104D4000CDE749463846FFF7F9F8C5E900010120EB
:104D5000C5E70EB10020C2E749463846FFF7EEF836
:104D6000CDE90001FFF736F9C5E900010120B6E7FA
:104D700000BF00BF012E01D00020B0E700BFD9F86E
:104D800000000090D9F804000190DDE90010C5E9A9
:104D900000100120A3E749463846FFF736F928609E
:104DA00001209CE7C2E0A84694F805B0022E01D08D
:104DB000002094E7BAF1000F13D0D8F8000080B1BA
:104DC000A06880690290D8F8000048B1D8F80010B7
:104DD0000298814204D0D8F80010059800F08DFAAE
:104DE00000BFA7EB0B00411C059800F07EFAC8F845
:104DF0000000D8F8000008B9002070E7A7EB0B020C
:104E000009EB0B01D8F8000001F011F80020A7EB26
:104E10000B02D8F800108854012060E7A84694F8E7
:104E200005B0022E01D0002059E7A06880690290E9
:104E3000BAF1000F0FD0D8F8040060B1029828B181
:104E4000D8F8041002984068814204D0D8F80410C1
:104E5000059800F052FAB7EB0B0014D0A7EB0B014A
:104E6000059800F042FAC8F80400D8F8040008B920
:104E7000002034E7A7EB0B0209EB0B01D8F8040084
:104E800000F0D5FF02E00020C8F80400A7EB0B00FB
:104E9000C8F80000012022E7AB46012001906079AC
:104EA0000090022E01D0002019E7A06880690290CE
:104EB000009909EB01037A1AA16848690599FFF77F
:104EC00092FC8046BAF1000F16D0DBF8000098B1D2
:104ED000DBF80010029881420ED0B8F1000F06D026
:104EE000DBF800004146059AFEF782FE0190DBF8F0
:104EF00000000599FFF798F8CBF80080B8F1000F93
:104F000001D0019880B90020E9E60000942B000848
:104F100072762D3E64657363726970746F722021BE
:104F20003D204E554C4C00000120D8E60020D6E62E
:104F30002DE9F84F044634B1206820B1206800689C
:104F4000F749884202D00020BDE8F88F4FF00008F2
:104F500083E02068C06908EB480101EBC80100EB61
:104F600081077E7A97F8089038690519B9F1020F20
:104F700044D1F86800EB040ADAF8000018B1286898
:104F800008B90020E0E7102E13D1286800904FF0F8
:104F9000000B09E0009951F82B00FFF7C9FF08B991
:104FA0000020D1E70BF1010BDAF800005845F1D8E9
:104FB00023E00E2E0DD12A68002105E052F82100D1
:104FC00008B90020C0E7491CDAF800008842F5D88B
:104FD00013E00F2E11D12A68002109E052F83100A8
:104FE00028B102EBC100406808B90020ACE7491CB9
:104FF000DAF800008842F1D800BF2CE0102E0ED164
:10500000D5F800A0B9F1000F02D0BAF1000F05D019
:105010005046FFF78DFF08B9002095E71BE00E2EE4
:1050200007D12968B9F1000F02D109B900208BE737
:1050300011E00F2E0FD1F86802192946B9F1000FBF
:1050400002D01068012805D1086818B1486808B96D
:10505000002079E700BF08F1010820688069404519
:105060003FF677AF01206FE72DE9F04704460D4684
:1050700016461F46DDF820A020684069A84200D9E6
:1050800005E040F60B52A749A7A000F04DFE04F141
:105090000C0858F8259053463A4631462046C847F2
:1050A000BDE8F08770B504460D461646AA49286843
:1050B000884200D105E04FF452629A49A7A000F05F
:1050C00033FE2560A660AFF25F0060606869810012
:1050D00004F10C0000F086FF70BD10B504462046B8
:1050E000A168884710BD2DE9F047044689460CB1F8
:1050F000206A10B90020BDE8F0870025E6691FE0AE
:1051000005EB5607216A51F83700494600F092FF37
:105110008046B8F1000F09D1206A00EBC700406853
:1051200000EB4000A16901EB8000E4E7B8F1000F5B
:1051300004DAA919781C0E1A7D1C00E07E1B00BF42
:10514000012EDDD80EB90020D5E7216A51F83500CF
:10515000494600F06FFF48B9206A00EBC50040687F
:1051600000EB4000A16901EB8000C4E70020C2E72A
:1051700070B504460D462A46D4E90901FEF79DFCA8
:105180000646002E01DA002070BD06EB4601A0693C
:1051900000EB8100F8E72DE9F04704468A460CB1A0
:1051A000206A10B90020BDE8F0870025A66921E03B
:1051B00005EB5608206A50F8280000EB400101EB8F
:1051C000C000E16901EB80075146386800F032FF0A
:1051D0008146B9F1000F01D13846E4E7B9F1000F7B
:1051E00005DAA91908F101000E1A054601E0A8EB3D
:1051F000050600BF012EDBD80EB90020D3E7206AD8
:1052000050F8250000EB400101EBC000E16901EB23
:1052100080075146386800F00DFF08B93846C2E7EC
:105220000020C0E770B504460D462A46D4E90901BE
:10523000FEF743FC0646002E01DA002070BD06EBA7
:10524000460101EBC601E06900EB8100F6E72DE9BC
:10525000F05F044689460CB1E06910B90020BDE852
:10526000F09F0025666924E005EB5607E06950F8D9
:1052700027A00AEB4A01A06950F821B049465846D8
:1052800000F0D8FE8046B8F1000F08D1E06950F870
:10529000270000EB4000A16901EB8000DFE7B8F1D7
:1052A000000F04DAA919781C0E1A7D1C00E07E1B81
:1052B00000BF012ED8D80EB90020D0E7E16951F81F
:1052C000251001EB4101A26952F82100494600F086
:1052D000B1FE40B9E06950F8250000EB4000A1693B
:1052E00001EB8000BBE70020B9E770B504460D462E
:1052F00029462268A068904770BD70B504460D46E7
:105300001DB12946D4E90120904770BD70B504460F
:10531000204600F0B7F80546FDF7A1FA70BD000081
:10532000F9EEAA28942B00086D6574686F645F69B4
:105330006E646578203C20736572766963652D3EE6
:1053400064657363726970746F722D3E6E5F6D6514
:1053500074686F6473000000C39B15142864657340
:1053600063726970746F72292D3E6D616769632085
:105370003D3D2050524F544F4255465F435F5F536F
:105380004552564943455F44455343524950544F53
:10539000525F4D41474943002DE9F04104460D4617
:1053A00020462946FDF7AEFA0646FDF788FABDE825
:1053B000F08170B504460D46204600F063F80646BD
:1053C0002946FDF788FC70BD2DE9F04104460D46E5
:1053D000904620462946FDF795FA06464246FDF7D7
:1053E000CCFCBDE8F08102460A600420704707B596
:1053F000009810600198506008200EBD02460AB166
:10540000012000E00020087001207047F0B504463C
:105410000D461746052C01D2204600E005208446A3
:105420000023002600210BE0685C00F07F00B04004
:105430000343F61D685C00F0800000B902E0491CDF
:105440006145F1D300BF614501D10020F0BD4A1C88
:105450003A60D018A04201D90020F7E7D018F5E74C
:1054600070B504460D4629462046FEF748FD70BD3E
:10547000014601F0010018B14808C0F1FF30704743
:105480004808FCE70146002904DA48420122C2EB41
:10549000400070474800FCE710B504461C228449D0
:1054A000204600F04BFD10BD10B504468149206830
:1054B000884200D104E013227FA185A000F034FCD3
:1054C0002046FDF727FB10BD70B504460D4679490F
:1054D0002068884200D104E01A2277A17CA000F065
:1054E00023FC29462046FDF7F7FE70BD70B5044643
:1054F0000D4670492068884200D104E021226EA147
:1055000073A000F011FC29462046FEF749F970BD52
:1055100070B504460D46164633462A462146654870
:10552000FFF761F970BD70B504460D46614920680A
:10553000884200D104E032225FA165A000F0F4FBB4
:1055400029462046FEF770FD70BD10B504462422A2
:105550006C49204600F0F2FC10BD10B504466A49C3
:105560002068884200D104E03E2253A167A000F0E9
:10557000DBFB2046FDF7CEFA10BD70B504460D46A4
:1055800061492068884200D104E045224AA15FA019
:1055900000F0CAFB29462046FDF79EFE70BD70B59F
:1055A00004460D4658492068884200D104E04C2248
:1055B00041A156A000F0B8FB29462046FEF7F0F8BE
:1055C00070BD70B504460D46164633462A46214640
:1055D0004D48FFF708F970BD70B504460D464A49BD
:1055E0002068884200D104E05D2233A147A000F08A
:1055F0009BFB29462046FEF717FD70BD10B50446FB
:1056000020225049204600F099FC10BD10B50446F8
:105610004D492068884200D104E0692226A14BA0B0
:1056200000F082FB2046FDF775FA10BD70B5044608
:105630000D4645492068884200D104E070221EA131
:1056400042A000F071FB29462046FDF745FE70BDE3
:1056500070B504460D463C492068884200D104E0FC
:10566000772215A139A000F05FFB29462046FEF7FE
:1056700097F870BD70B504460D46164633462A4667
:1056800021463148FFF7AFF870BD70B504460D46AE
:105690002D492068884200D104E0882206A12BA071
:1056A00000F042FB29462046FEF7BEFC70BD00001C
:1056B0003C0000201C6500082E2E5C557365725C52
:1056C00070726F746F636F6C2E70622D632E630047
:1056D0006D6573736167652D3E626173652E6465E8
:1056E0007363726970746F72203D3D2026706F7312
:1056F0005F706F696E745F5F646573637269707405
:105700006F72000058000020286600086D657373F2
:105710006167652D3E626173652E646573637269AE
:1057200070746F72203D3D20267363616E5F7265F9
:1057300073756C745F5F64657363726970746F72A4
:10574000000000007C000020486700086D6573734E
:105750006167652D3E626173652E6465736372696E
:1057600070746F72203D3D20266D657373616765AF
:105770005F5F64657363726970746F72000000002C
:1057800030B503460C464FF0FF32002108E0585C6C
:105790005040C0B2654D55F8200080EA1222491CE5
:1057A000A142F4D3D04330BD10B5044600200FE031
:1057B000216951F820100A695D4941F830202169BA
:1057C00051F820108A695A4901EBC0014A60401C17
:1057D000E1688142ECD85649091F206AC86200205E
:1057E0000870606900694862606981695048001FFB
:1057F00081623030A16900F0D7FA10BD0146002067
:105800000A784B7842EA03228B7842EA0342CB784B
:1058100042EA0360704710B502460B4600210020A3
:1058200017E0545CFE2C0FD1491C545CFC2C04D0B6
:10583000FD2C05D1FF241C5402E0FE241C5400BFA3
:1058400000BF401C491C04E0545C1C54491C401C13
:1058500000BF545CFF2CE4D110BD2DE9F047C0B06F
:105860004FF48071684600F0BDFB69463148FFF790
:10587000D2FF80464FF480712E48401E00F0B2FBEC
:1058800000202D4908606846FFF7B8FF064601A8CA
:10589000FFF7B4FF8146A8F10800B04202D040B043
:1058A000BDE8F087314602A8FFF76AFF05464D457F
:1058B00000D0F4E702AF3A4631460020FFF7DAFEA7
:1058C0000446206901280DD10020D4E90612FFF713
:1058D00078FE82465046FFF767FF00215046FFF7EB
:1058E0007BFE00BF00212046FFF7CFFE00BFD6E7BA
:1058F00010B50446104801680068401C0E4A10604C
:105900000C48401E4454FF2C01D1FFF7A6FF10BDE8
:1059100070B505460E46002404E0295D07A000F09E
:1059200007F9641CB442F8DB70BD0000846700080E
:10593000A8000020090100209C00002025303278BA
:105940002000000010B5082000F089F842490860E6
:1059500010BD10B5FAF710FE4FF48030FAF72CFEA8
:10596000FAF769FE0446012C24D10020FAF7A9FEBB
:105970000020FAF7B8FEA002FAF7ACFE0220FBF70F
:105980002FFB1020FBF740FB4FF4E0112004FAF747
:105990007BFE0120FAF784FE00BF3920FAF72FFEC4
:1059A0000028FAD00220FAF77EFE00BFFAF784FE44
:1059B0000828FBD101210846FAF759FF01210820E8
:1059C000FAF748FF10BD0EB54FF08040FBF7E6FD3B
:1059D0004FF08040FCF746FA48F69F40ADF80000D3
:1059E0000020ADF80600ADF8020040F2CF70ADF82F
:1059F000040069464FF08040FBF7A4FE01218807B0
:105A0000FCF7C2FC00214FF08040FCF7F7FA0122BE
:105A100011469007FCF70DFA0EBD08B54FF4C060B3
:105A2000FBF780F91C208DF8000000208DF80100A4
:105A30008DF8020001208DF803006846FBF777F926
:105A400008BD10B501218807FCF7A1FC18B10121A0
:105A50008807FCF7ADFC10BDA0000020704770B5B2
:105A6000064600F02BFB056806F10B0020F007044A
:105A7000B4429CBF002070BD2B466A68BAB1106862
:105A8000A04210D304F1080188423CBF506858601E
:105A900007D35168101941601168091B01605860F3
:105AA0001460101D70BD13465268002AE7D12146CC
:105AB000284600F00BFB0028DED170BD70B504460F
:105AC000051F00F0FBFA0068002C14BF446870BD8D
:105AD000002C18BFAC423CBF20466468F8D3016874
